:1000000093C053C1ACC0ABC0AAC0A9C0A8C0A7C010
:10001000A6C0A5C0A4C0B2C1A2C0A1C0A0C09FC0BC
:100020009EC09DC09CC06E616E00696E66000040FF
:100030007A10F35A00A0724E18090010A5D4E800F7
:1000400000E87648170000E40B54020000CA9A3B0F
:10005000000000E1F5050000809698000000404295
:100060000F000000A0860100000010270000000023
:10007000E803000000006400000000000A00000027
:1000800000000100000000002C76D888DC674F08D3
:1000900023DFC1DFAE59E1B1B796E5E3E453C63AD9
:1000A000E651997696E8E6C28426EB898C9B62ED50
:1000B000407C6FFCEFBC9C9F40F2BAA56FA5F4900A
:1000C000055A2AF75C936B6CF9676DC11BFCE0E481
:1000D0000D47FEF520E6B500D0ED902E03009435D7
:1000E00077050080841E080000204E0A000000C82A
:1000F0000C333333330F986E12831141EF8D21147B
:10010000893BE65516CFFEE6DB18D1844B381BF74A
:100110007C1D901DA4BBE424203284725E228100E9
:10012000C9F124ECA1E53D2711241FBECFE5D4E0A1
:10013000DEBFCDBF10E0A0E6B0E0E6E6FEE002C024
:1001400005900D92A238B107D9F721E0A2E8B0E0FE
:1001500001C01D92AB30B207E1F702D082C650CF8A
:100160008FEF81BB949AF4D078940F2EF0E6AF2EE7
:10017000F0E0BF2EF02D0F2EF9E7EF2EF0E0FF2E6E
:10018000F02D0F2EF5EACF2EF0E0DF2EF02DC5EC8E
:10019000D0E0949A8FE99FE00197F1F700C000004A
:1001A000F50180811F928F9380916A001F928F9337
:1001B000FF92EF92E5D58FE99FE00197F1F700C03C
:1001C000000094989FEFE3EDF0E39150E040F040A1
:1001D000E1F700C00000F6010F900F900F900F9014
:1001E0000F900F901192EC17FD07E1F7D2CF81111C
:1001F00001C093988FE991E00197F1F700C00000EA
:10020000939A0895EF92FF92CF93DF93E82E80E0C8
:10021000EEDFC0E0D0E0F12C97010C2E02C0359546
:1002200027950A94E2F720FF03C081E0E0DF02C0D7
:1002300080E0DDDF2196C830D10571F781E0D7DF9E
:10024000DF91CF91FF90EF900895EF92FF92CF93BF
:10025000FC018081882351F07F01C0E0CF5FD2DFB5
:10026000F701EC0FF11D80818111F8CFCF91FF9044
:10027000EF90089520E030E080E061E070E0EFE989
:10028000F1E03197F1F700C00000829B08C0AB019C
:10029000022E02C0440F551F0A94E2F7842B2F5FF1
:1002A0003F4F2830310559F708951F920F920FB62E
:1002B0000F9211242F933F934F935F936F937F93EC
:1002C0008F939F93AF93BF93EF93FF938BB78F7BE6
:1002D0008BBF85B78D7F85BF8FEC90E00197F1F7DD
:1002E00000C00000829910C0C5DF90918200E92F04
:1002F000F0E0EB51FF4F80839F5F913218F49093B1
:10030000820002C0109282008BB780648BBF85B7D9
:10031000826085BFFF91EF91BF91AF919F918F91C7
:100320007F916F915F914F913F912F910F900FBEF1
:100330000F901F901895CF93C82F8A3011F48DE03D
:10034000FADF5D9BFECFCCB980E090E0CF910895BD
:1003500083E389B988E98AB986E880BD8FEF81BBDC
:1003600080E482BB109283001092A40078948BE604
:1003700090E0909308018093070108951F920F92D7
:100380000FB60F9211242F933F934F935F936F9368
:100390007F938F939F93AF93BF93EF93FF93949823
:1003A0009CB1E0918300F0E0EB55FF4F908380918A
:1003B00083008F5F809383009A3221F080918300C5
:1003C000803298F0E0918300F0E0EC55FF4F10820E
:1003D0001092830081E08093A40085EA90E035DFED
:1003E0008FE790E032DF1092A500FF91EF91BF916F
:1003F000AF919F918F917F916F915F914F913F91BD
:100400002F910F900FBE0F901F901895A3E1B0E0B1
:10041000EBE0F2E058C36C014B012A01FC011782AA
:100420001682838181FF29C3AE014F5F5F4F3A017E
:10043000F6019381F40193FD859193FF81914F0122
:10044000882309F416C3853239F493FD859193FF0F
:1004500081914F01853231F4B60190E059D45201B7
:100460002501E6CF10E0F12C20E02032A0F48B3201
:1004700069F030F4803259F0833269F420612CC085
:100480008D3239F0803339F4216026C02260246037
:1004900023C0286021C027FD27C030ED380F3A3037
:1004A00078F426FF06C0FAE01F9F300D1124132FA9
:1004B00013C04AE0F49E300D1124F32E20620CC0CC
:1004C0008E3221F426FDD5C2206406C08C3611F48C
:1004D000206802C0883641F4F40193FD859193FFB2
:1004E00081914F018111C1CF9BEB980F933018F48C
:1004F0002061805E06C09BE9980F933008F064C1CC
:100500002F7E26FF16E02F73322E853619F42064D5
:10051000322E08C0863621F4F22FF0683F2E02C03A
:100520001111115037FE07C01C3350F4EE24E39430
:10053000E10E27E00BC0183038F027E017E005C0C7
:1005400027E04CE3E42E02C0212FE12C520144E0CD
:10055000A40EB11CF20160817181828193810E2D04
:10056000A301E8D22C01098100FF02C003FF07C0EC
:1005700031FC08C032FE09C030E2232E07C02DE254
:10058000222E04C09BE2292E01C0212C802F8C70CA
:1005900019F0211051C28DC237FE0FC0E40C04FFC8
:1005A00004C08A81813309F4EA941E1474F5F8E0DA
:1005B000FE1578F588E0E82E2CC036FC2AC0812F85
:1005C00090E0841595059CF02CEF42162FEF520613
:1005D00074F0432D4068342E0AC0E2E0F0E0EC0FE6
:1005E000FD1FE10FF11D8081803319F411501111AD
:1005F000F4CF37FE0EC0EE24E394E10E812F90E09D
:10060000481659062CF4141904C0EE24E39401C0D2
:1006100010E037FE06C01414150434F4C20101962C
:1006200005C085E090E002C081E090E021100196D5
:10063000112331F0212F30E02F5F3F4F820F931FA6
:100640002F2D30E08217930714F4F81A01C0F12C13
:10065000832D897041F4FF2031F0B60180E290E0F3
:1006600057D3FA94F8CF222021F0B601822D90E0E2
:100670004FD333FC08C0FF2031F0B60180E390E097
:1006800047D3FA94F8CF37FE58C0942D852D57FEE6
:1006900002C090E080E0292E382E20E030E0A20158
:1006A0004E1951095D874C87A201421953095F8792
:1006B0004E87612F70E044275527461B570B598BF7
:1006C000488B5FEF2516350641F4B6018EE290E0C7
:1006D0002A8B3B8B1DD33B892A89421453046CF02F
:1006E0004C855D854215530544F4EE85FF85E20F88
:1006F000F31FE60DF71D818101C080E351E0251A4B
:1007000031082F5F3F4F488959892416350644F038
:10071000B60190E02A8B3B8BFBD22A893B89D1CF53
:100720002414350439F49A81963318F4953311F46E
:1007300004FF81E3B60190E045C08A81813309F06E
:100740000F7EB60190E0E4D2111105C034FC16C052
:1007500085E690E015C0B6018EE290E0D9D282E045
:10076000EE24E394E80EF301E80FF11D8081B60159
:1007700090E0CED211508E2D99F7E8CF85E490E02D
:10078000B601C6D257FC05C04114510439F404FF28
:1007900005C05194419451088DE201C08BE2B6012D
:1007A00090E0B6D280E39AE0491651042CF08F5FB6
:1007B0005AE0451A5108F7CFB60190E0A9D2B60128
:1007C000C201C096A5D24CC1833631F0833779F08F
:1007D000833509F054C020C05201E2E0AE0EB11CD6
:1007E000F2018081898301E010E0230113C05201EE
:1007F000F2E0AF0EB11CF2014080518026FF03C031
:10080000612F70E002C06FEF7FEFC2012A8B75D2BB
:100810008C012A892F7714C05201F2E0AF0EB11C6F
:10082000F2014080518026FF03C0612F70E002C0BA
:100830006FEF7FEFC2012A8B55D28C012A89206885
:10084000322E23FD18C08F2D90E00817190798F459
:10085000B60180E290E05CD2FA94F5CFF20137FC69
:10086000859137FE81912F01B60190E051D2F110B0
:10087000FA94015011090115110581F7F1C0843670
:1008800011F0893651F5520127FF09C0F4E0AF0E8F
:10089000B11CF20160817181828193810AC0F2E012
:1008A000AF0EB11CF20160817181072E000C880B24
:1008B000990B2F76322E97FF09C0909580957095F1
:1008C00061957F4F8F4F9F4F2068322E2AE030E096
:1008D000A30169D2E82EE6183EC0022F853721F425
:1008E0000F7E2AE030E01DC0097F8F3691F018F4AA
:1008F000883559F0BEC0803719F0883711F0B9C07B
:10090000006104FF09C0046007C024FF08C006603E
:1009100006C028E030E005C020E130E002C020E160
:1009200032E0520107FF09C0F4E0AF0EB11CF20142
:10093000608171818281938108C0F2E0AF0EB11CA9
:10094000F2016081718180E090E0A3012CD2E82E59
:10095000E6180F77302E36FE0BC0332D3E7FE116A2
:1009600050F434FE0AC032FC08C0332D3E7E05C070
:100970000E2D332D03C00E2D01C0012F34FF0CC0EE
:10098000FE01EE0DF11D8081803311F4397E08C027
:1009900032FF05C00E5F04C0832F867809F00F5F19
:1009A00033FD12C030FF06C01E2D0F1518F41F0DA9
:1009B000101B0F2D0F1560F4B60180E290E03B8B09
:1009C000A7D10F5F3B89F6CF0F1510F4F01A01C0C5
:1009D000F12C34FF11C0B60180E390E03B8B98D13D
:1009E0003B8932FF16C031FD03C088E790E002C0AA
:1009F00088E590E0B6010CC0832F867851F031FF76
:100A000002C08BE201C080E237FD8DE2B60190E0CA
:100A10007FD1E11630F4B60180E390E079D1115036
:100A2000F8CFEA94F301EE0DF11D8081B60190E05C
:100A30006FD1E110F6CF14C0F4E0FF1548F584E063
:100A4000F81A33FE1DC0211024C003FF27C006E2A0
:100A500010E0F32DF0713F2EF8018491811121C037
:100A6000FF2009F4FDCCB60180E290E051D1FA9468
:100A7000F7CFF6018681978123C08FEF9FEF20C0CB
:100A8000B60180E290E044D1FA94F110F9CFDBCFC7
:100A9000F12CB601822D90E03BD1D7CF0AE210E0D5
:100AA000D8CF31108052B60190E032D10F5F1F4F86
:100AB000D3CF23E02F1510F483E0C2CFF12CC5CFA4
:100AC0006396E2E11CC02F923F924F925F926F9229
:100AD0007F928F929F92AF92BF92CF92DF92EF92CE
:100AE000FF920F931F93CF93DF93CDB7DEB7CA1B4F
:100AF000DB0B0FB6F894DEBF0FBECDBF09942A887A
:100B0000398848885F846E847D848C849B84AA8421
:100B1000B984C884DF80EE80FD800C811B81AA81AE
:100B2000B981CE0FD11D0FB6F894DEBF0FBECDBF79
:100B3000ED010895283008F027E03327DA01990FF6
:100B4000311D87FD916000966105710539F43260B1
:100B50002E5F3D9330E32A95E1F708959F3F30F0F3
:100B600080387105610509F03C5F3C5F3D93913031
:100B700008F08068911DDF93CF931F930F93FF922E
:100B8000EF92192F987F9695E92F96959695E90FF4
:100B9000FF27E857FF4F99273327EE24FF24A701AB
:100BA000E70105900894079428F4360FE71EF81E15
:100BB000491F511D660F771F881F991F0694A1F7C3
:100BC0000590079428F4E70EF81E491F561FC11D13
:100BD000770F881F991F661F0694A1F70590079449
:100BE00028F4F80E491F561FC71FD11D880F991FE3
:100BF000661F771F0694A1F70590079420F4490F0C
:100C0000561FC71FD81F990F661F771F881F06948E
:100C1000A9F784911095177041F0D695C79557950F
:100C20004795F794E7941A95C1F7EEE2F0E06894DF
:100C30001590159135916591959105907FE2739589
:100C4000E118F10A430B560BC90BD009C0F7E10CB0
:100C5000F11E431F561FC91FD01D7EF4703311F4BF
:100C60008A95E6CFE894015030F0080F0AF4002787
:100C7000021708F4202F2395022F7A3328F079E306
:100C80007D932A95E9F710C07D932A9589F60694FD
:100C900097956795379517951794E118F10A430BC7
:100CA000560BC90BD00998F023957E9173957A3332
:100CB00008F070E37C932013B8F77E9170617D9308
:100CC00030F0839571E37D9370E32A95E1F7112469
:100CD000EF90FF900F911F91CF91DF91992787FDA2
:100CE00090950895FC010590615070400110D8F76F
:100CF000809590958E0F9F1F0895FC016150704064
:100D000001900110D8F7809590958E0F9F1F089540
:100D10000F931F93CF93DF93FB01238121FD03C02A
:100D20008FEF9FEF28C022FF16C046815781248194
:100D300035814217530744F4A081B1819D012F5F93
:100D40003F4F318320838C93268137812F5F3F4F24
:100D50003783268310C0EB01092F182F0084F185FB
:100D6000E02D0995892BE1F68E819F8101969F8365
:100D70008E83812F902FDF91CF911F910F91089536
:100D8000A0E0B0E0E5ECF6E0AECEAE014B5F5F4F29
:100D9000FA0161917191AF01809107019091080171
:100DA00035DBE2E0BCCEFA01AA27283051F1203130
:100DB00081F1E8946F936E7F6E5F7F4F8F4F9F4FEF
:100DC000AF4FB1E03ED0B4E03CD0670F781F891F31
:100DD0009A1FA11D680F791F8A1F911DA11D6A0FFF
:100DE000711D811D911DA11D20D009F468943F91B2
:100DF0002AE0269F11243019305D3193DEF6CF01B1
:100E00000895462F4770405D4193B3E00FD0C9F776
:100E1000F6CF462F4F70405D4A3318F0495D31FDE3
:100E20004052419302D0A9F7EACFB4E0A695979536
:100E3000879577956795BA95C9F70097610571050C
:100E400008959B01AC010A2E069457954795379556
:100E50002795BA95C9F7620F731F841F951FA01DB0
:060E60000895F894FFCF95
:100E6600101112131415161718006800000002005E
:100E76000000009B0100000000256325632A000D89
:020E86000A0060
:00000001FF
