:1000000012C041C22BC02AC029C028C027C026C0A8
:1000100025C024C023C0CFC221C020C01FC01EC025
:100020001DC01CC01BC011241FBECFE5D4E0DEBF25
:10003000CDBF10E0A0E6B0E0EAE0FCE002C0059031
:100040000D92AA3AB107D9F721E0AAEAB0E001C0BF
:100050001D92A934B207E1F753D0D5C5D1CFCF92C5
:10006000DF92EF92FF92CF93DF9388E790E0DBD1AE
:10007000C1E3D0E00F2EF0E6CF2EF0E0DF2EF02D22
:100080000F2EFAE8EF2EF0E0FF2EF02D949A8FE974
:100090009FE00197F1F700C00000F60181811F92F7
:1000A0008F93DF93CF93FF92EF92F4D28FE99FE08B
:1000B0000197F1F700C000009498EFE3FCE9319755
:1000C000F1F700C0000021960F900F900F900F9055
:1000D0000F900F90CF3FD105C9F680E990E0A3D1F2
:1000E000FFEF27EA81E6F15020408040E1F700C0B1
:1000F0000000DF91CF91FF90EF90DF90CF900895B7
:1001000008D28FEF81BB949A40D278941092CD00A0
:100110001092CC00A4DF0F2EF0ED4F2EF0E05F2EFA
:10012000F02D312C10E00F2EF0E68F2EF0E09F2EF8
:10013000F02D0F2EFAE8CF2EF0E0DF2EF02D0F2E4F
:10014000FAED6F2EF0E07F2EF02D0F2EFAEFAF2E8E
:10015000F0E0BF2EF02D50D08091CC009091CD00DA
:10016000892BD1F17201C32DD12F949AEFE9FFE0D1
:100170003197F1F700C00000F70181917F01F40190
:1001800090811F929F931F928F93DF92CF9282D282
:100190008FE99FE00197F1F700C0000094989FEF6E
:1001A000E3EDF0E39150E040F040E1F700C00000E3
:1001B00021960F900F900F900F900F900F908091BD
:1001C000CC009091CD00C817D90778F205C01192E4
:1001D000EA15FB05E1F7BFCF83E990E024D1F301F5
:1001E000F6CF982F92959F70990F292F220F220FEB
:1001F000920F8F70890F0895CF9360ED80E09CD1AE
:100200008BD181ED92D1A6D18093FF00A3D18093B1
:10021000FD00A0D18093FA009DD1809300019AD176
:100220008093010197D18093CE009BD18093FE00F3
:1002300079D18091FF00D5DF8093FF008091FD0090
:10024000D0DF8093FD008091FA00CBDF8093FA002D
:1002500080910001C6DF809300018091FE00C1DF24
:100260008093FE008091CE00BCDF8093CE00809111
:100270000101B7DF80930101CDEC8C9F812D11240A
:10028000869586958695805DABD0809101018C9F87
:10029000912D1124969596959695990F292F220FB9
:1002A000220F920F891B805D9BD08EE299D08091A6
:1002B000CE008C9F812D1124869586958695805D34
:1002C0008FD08091CE008C9F912D1124969596957C
:1002D0009695990F292F220F220F920F891B805D6F
:1002E0007FD08EE27DD08091FE008C9F812D1124E5
:1002F000869586958695805D73D08091FE008C9F53
:10030000912D1124969596959695990F292F220F48
:10031000220F920F891B805D63D089E061D08091AC
:10032000FA008C9F812D1124869586958695805D97
:1003300057D08091FA008C9F912D11249695969517
:100340009695990F292F220F220F920F891B805DFE
:1003500047D08AE345D08091FD008C9F812D1124E8
:10036000869586958695805D3BD08091FD008C9F1B
:10037000912D1124969596959695990F292F220FD8
:10038000220F920F891B805D2BD08AE329D08091A8
:10039000FF008C9F812D1124869586958695805D22
:1003A0001FD08091FF008C9FC12D1124C695C6954A
:1003B000C695CC0F9C2F990F990FC90F8C1B805D90
:1003C0000FD089E00DD0CF910895811101C093988D
:1003D0008FE991E00197F1F700C00000939A08952A
:1003E000EF92FF92CF93DF93E82E80E0EEDFC0E044
:1003F000D0E0F12C97010C2E02C0359527950A9478
:10040000E2F720FF03C081E0E0DF02C080E0DDDF33
:100410002196C830D10571F781E0D7DFDF91CF9108
:10042000FF90EF900895EF92FF92CF93FC018081AF
:10043000882351F07F01C0E0CF5FD2DFF701EC0FDE
:10044000F11D80818111F8CFCF91FF90EF90089539
:1004500020E030E080E061E070E0EFE9F1E031972A
:10046000F1F700C00000829B08C0AB01022E02C061
:10047000440F551F0A94E2F7842B2F5F3F4F28301B
:10048000310559F708951F920F920FB60F9211245C
:100490002F933F934F935F936F937F938F939F938C
:1004A000AF93BF93EF93FF938BB78F7B8BBF85B7D2
:1004B0008D7F85BF8FEC90E00197F1F700C00000C1
:1004C000829910C0C5DF9091AA00E92FF0E0ED5DA0
:1004D000FE4F80839F5F913218F49093AA0002C070
:1004E0001092AA008BB780648BBF85B7826085BFEE
:1004F000FF91EF91BF91AF919F918F917F916F91FC
:100500005F914F913F912F910F900FBE0F901F90D1
:10051000189580E280B9089584EA86BF06B607FE82
:10052000FDCF089584E986BF089583B984E886BF26
:1005300006B607FEFDCF0895CF93DF93C82FD62FC1
:10054000EBDF8D2FF2DF8C2FF0DF84E986BFDF91A8
:10055000CF91089584EC86BF06B607FEFDCF83B128
:10056000089584E886BF06B607FEFDCF83B10895DF
:10057000CF93C82F8A3011F48DE0FADF5D9BFECF58
:10058000CCB980E090E0CF91089583E389B988E900
:100590008AB986E880BD8FEF81BB80E482BB109270
:1005A000AB001092CF0078948AE690E090934601D9
:1005B0008093450108951F920F920FB60F92112458
:1005C0002F933F934F935F936F937F938F939F935B
:1005D000AF93BF93CF93DF93EF93FF9394989CB126
:1005E000E091AB00F0E0E652FF4F90838091AB00CA
:1005F0008F5F8093AB009A3221F08091AB00803204
:10060000B0F1E091AB00F0E0E752FF4F10821092A2
:10061000AB0081E08093CF008091DB00813191F0CD
:10062000823119F18031F1F48091DC00882331F0BE
:10063000CDEDD0E0D5DE89918111FCCF86E990E047
:10064000F2DE13C08091CC009091CD00FC01E0530C
:10065000FF4F2091DA00208301969093CD00809384
:10066000CC0003C088E990E0DEDE1092DA00FF9152
:10067000EF91DF91CF91BF91AF919F918F917F913A
:100680006F915F914F913F912F910F900FBE0F90FF
:100690001F901895A0E0B0E0EFE4F3E08DC2AE014A
:1006A0004B5F5F4FFA0161917191AF0180914501FC
:1006B0009091460102D0E2E09BC2ACE0B0E0E2E6FD
:1006C000F3E06AC27C016B018A01FC011782168289
:1006D000838181FFB0C1CE0101964C01F701938166
:1006E000F60193FD859193FF81916F01882309F4B1
:1006F0009EC1853239F493FD859193FF81916F01FD
:10070000853221F4B70190E0B1D1E8CF512C312CE2
:1007100020E02032A0F48B3269F030F4803259F0BE
:10072000833269F420612CC08D3239F0803339F482
:10073000216026C02260246023C0286021C027FDDC
:1007400027C030ED380F3A3078F426FF06C0FAE0C3
:100750005F9E300D1124532E13C08AE0389E300D59
:100760001124332E20620CC08E3221F426FD5FC18D
:10077000206406C08C3611F4206802C0883641F42B
:10078000F60193FD859193FF81916F018111C1CF96
:10079000982F9F7D9554933028F40C5F1F4FFFE3F3
:1007A000F9830DC0833631F0833771F0833509F05A
:1007B00057C021C0F801808189830E5F1F4F4424F8
:1007C0004394512C540114C03801F2E06F0E711C97
:1007D000F801A080B18026FF03C0652D70E002C043
:1007E0006FEF7FEFC5012C8736D12C0183012C855B
:1007F0002F77222E16C03801F2E06F0E711CF8011F
:10080000A080B18026FF03C0652D70E002C06FEFAD
:100810007FEFC5012C8714D12C012C852068222E56
:10082000830123FC19C0832D90E048165906A0F4DB
:10083000B70180E290E01AD13A94F5CFF50127FC98
:10084000859127FE81915F01B70190E00FD13110B2
:100850003A94F1E04F1A51084114510479F7DEC07F
:10086000843611F0893631F5F80127FF07C0608121
:100870007181828193810C5F1F4F08C060817181FB
:10088000072E000C880B990B0E5F1F4F2F76722ED0
:1008900097FF09C090958095709561957F4F8F4F18
:1008A0009F4F2068722E2AE030E0A40117D1A82EB5
:1008B000A81843C0853729F42F7EB22E2AE030E0F5
:1008C00025C0F22FF97FBF2E8F36C1F018F488357E
:1008D00079F0ADC0803719F0883721F0A8C02F2FEC
:1008E0002061B22EB4FE0DC08B2D8460B82E09C0DD
:1008F00024FF0AC09F2F9660B92E06C028E030E082
:1009000005C020E130E002C020E132E0F801B7FE8E
:1009100007C060817181828193810C5F1F4F06C087
:100920006081718180E090E00E5F1F4FA401D6D0FE
:10093000A82EA818FB2DFF777F2E76FE0BC0372D33
:100940003E7FA51450F474FE0AC072FC08C0372D17
:100950003E7E05C0BA2C372D03C0BA2C01C0B52C81
:1009600034FF0DC0FE01EA0DF11D8081803311F4CA
:10097000397E09C032FF06C0B394B39404C0832FFC
:10098000867809F0B39433FD12C030FF06C05A2CAC
:10099000B31418F4530C5B18B32CB31460F4B70100
:1009A00080E290E03C8762D0B3943C85F6CFB314EC
:1009B00010F43B1801C0312C34FF11C0B70180E3A3
:1009C00090E03C8753D03C8532FF16C031FD03C018
:1009D00088E790E002C088E590E0B7010CC0832F63
:1009E000867851F031FF02C08BE201C080E237FD12
:1009F0008DE2B70190E03AD0A51430F4B70180E35E
:100A000090E034D05A94F8CFAA94F401EA0DF11D85
:100A10008081B70190E02AD0A110F6CF332009F4ED
:100A20005DCEB70180E290E021D03A94F7CFF70194
:100A30008681978102C08FEF9FEF2C96E2E1C8C0BC
:100A4000FC010590615070400110D8F78095909599
:100A50008E0F9F1F0895FC0161507040019001109E
:100A6000D8F7809590958E0F9F1F08950F931F9331
:100A7000CF93DF93FB01238121FD03C08FEF9FEF15
:100A800028C022FF16C04681578124813581421734
:100A9000530744F4A081B1819D012F5F3F4F318303
:100AA00020838C93268137812F5F3F4F37832683A6
:100AB00010C0EB01092F182F0084F185E02D099556
:100AC000892BE1F68E819F8101969F838E83812FF2
:100AD000902FDF91CF911F910F910895FA01AA27CE
:100AE000283051F1203181F1E8946F936E7F6E5F71
:100AF0007F4F8F4F9F4FAF4FB1E03ED0B4E03CD01F
:100B0000670F781F891F9A1FA11D680F791F8A1F01
:100B1000911DA11D6A0F711D811D911DA11D20D068
:100B200009F468943F912AE0269F11243019305D22
:100B30003193DEF6CF010895462F4770405D419313
:100B4000B3E00FD0C9F7F6CF462F4F70405D4A3360
:100B500018F0495D31FD4052419302D0A9F7EACF28
:100B6000B4E0A6959795879577956795BA95C9F757
:100B700000976105710508959B01AC010A2E06944A
:100B80005795479537952795BA95C9F7620F731F03
:100B9000841F951FA01D08952F923F924F925F9240
:100BA0006F927F928F929F92AF92BF92CF92DF927D
:100BB000EF92FF920F931F93CF93DF93CDB7DEB7E2
:100BC000CA1BDB0B0FB6F894DEBF0FBECDBF099476
:100BD0002A88398848885F846E847D848C849B84CD
:100BE000AA84B984C884DF80EE80FD800C811B81DB
:100BF000AA81B981CE0FD11D0FB6F894DEBF0FBE0A
:0A0C0000CDBFED010895F894FFCF79
:100C0A001011121314151617180000000002000024
:100C1A000000B80200000000496E696369616C69EE
:100C2A007A6174696F6E2E2E2E00256325632A0061
:100C3A004F6B210D0A000900636F6D616E64206EAF
:0A0C4A006F7420666F756E642A0057
:00000001FF
